:060000000A128A11132907
:100200008A010A1482073F3406345B344F34663463
:100210006D347D3407347F34673477347C3439343B
:100220005E347934713403178316890103138316FE
:100230000614861487010716871607178717880183
:1002400085018901881703138312870188018901B9
:100250008501A001031383168112811101148114F9
:100260000115031383160F138F120F160F140313A8
:1002700083120B1D39295F2161212008002188008C
:100280000313831206185821861851218901070883
:10029000200203194E2120088500372987010915FE
:1002A000080086185129A0032008002188000800B2
:1002B00006185829A00A2008002188000800870A8B
:0C02C0000800C33081000B11880008000A
:04400E00C430FF3F7C
:00000001FF
